:100000003DC100006CC100006AC1000068C1000071
:1000100066C1000064C1000062C1000060C1000050
:100020005EC100005CC100005AC1000058C1000060
:1000300056C1000054C1000052C1000041C500007B
:100040004EC100004CC100004AC1000048C1000080
:1000500046C1000044C1000042C1000029C40000A4
:100060003EC10000F7C40000CCC4000038C100004D
:1000700036C1000034C1000032C1000030C10000B0
:100080002EC100002CC100002AC1000028C10000C0
:1000900026C1000024C1000022C1000020C10000D0
:1000A0001EC100001CC100001AC1000018C10000E0
:1000B00016C1000014C1000012C1000010C10000F0
:1000C0000EC100000CC100000AC1000008C1000000
:1000D00006C1000004C100005EC4000033C400007B
:1000E000FEC00000F105F405E305E705ED052B066C
:1000F000F805FC05020606060A0610061406180690
:100100002B061E0622062606FF09040A090A130A00
:100110001D0A960A270A2F0A370A410A4B0A550A6E
:10012000640A6E0A960A780A820A8C0A084AD73B41
:100130003BCE016E84BCBFFDC12F3D6C74319ABDB6
:1001400056833DDA3D00C77F11BED9E4BB4C3E91DA
:100150006BAAAABE000000803F000000210024001E
:1001600027002A002D0030003300010100000401A7
:1001700007010A0100002200250028002B002E00A4
:100180003100340002010000050108010B010000EC
:1001900020002300260029002C002F00320000013F
:1001A000000003010601090105050505070508080A
:1001B0000808020202020A0A0808040404040101F1
:1001C0000101010101010303030303030303040706
:1001D00007070C0C0C0C0C0C0C0C0202020206069D
:1001E0000606060606060B0B0B0B0B0B0B0B010290
:1001F0001020200808102040102040800201020139
:1002000008040201010204081020408080402010F0
:100210000804020180040201804020100804020149
:1002200008040201010204081020408001020408B1
:100230001020408000000A0B02090C0D0E08070375
:1002400004010000000000000000000000000000A9
:10025000000000000000000000000000000000009E
:10026000121110000000000000000000000000005B
:1002700000000000000000000000941111241FBEC7
:10028000CFEFD1E2DEBFCDBF00E00CBF12E0A0E0B7
:10029000B2E0EAE7FBE200E00BBF02C007900D927C
:1002A000A231B107D9F725E0A2E1B2E001C01D9269
:1002B000A134B207E1F711E0CEE3D1E000E006C0DF
:1002C00021970109802FFE010E94AF15CD33D10780
:1002D00080E00807A9F70E94C20C0C94BB1590CED1
:1002E000CF92DF92EF92FF920F931F93CF93DF9302
:1002F0006C017A018B01C0E0D0E0CE15DF0581F002
:10030000D8016D918D01D601ED91FC910190F081A4
:10031000E02DC6011995892B11F02196EECF7E01B3
:10032000C701DF91CF911F910F91FF90EF90DF9068
:10033000CF900895089580E090E00895FC01538DDA
:10034000448D252F30E0842F90E0821B930B5417AF
:1003500010F0CF96089501970895FC01918D828D3C
:10036000981761F0828DDF01A80FB11D5D968C9109
:10037000928D9F5F9F73928F90E008958FEF9FEF14
:100380000895FC01918D828D981731F0828DE80FD0
:10039000F11D858D90E008958FEF9FEF0895FC018A
:1003A000918D228D892F90E0805C9F4F821B910957
:1003B0008F739927089589ED92E0F1DF21E0892B71
:1003C00009F420E0822F089586E793E0E8DF21E03A
:1003D000892B09F420E0822F0895FC01848DDF0130
:1003E000A80FB11DA35ABF4F2C91848D90E00196A8
:1003F0008F739927848FA689B7892C93A089B18997
:100400008C91837080648C93938D848D981306C037
:100410000288F389E02D80818F7D80830895EF929B
:10042000FF920F931F93CF93DF93EC0181E0888FAE
:100430009B8D8C8D981305C0E889F989808185FD95
:1004400025C0F62E0B8D10E00F5F1F4F0F73112785
:10045000E02E8C8DE8120BC00FB607FCFACFE889AE
:10046000F989808185FFF5CFCE01B7DFF2CF8B8D83
:10047000FE01E80FF11DE35AFF4FF0829FB7F89499
:100480000B8FEA89FB89808180620AC09FB7F8944C
:10049000EE89FF896083E889F989808183708064AF
:1004A00080839FBF81E090E0DF91CF911F910F91FA
:1004B000FF90EF900895CF93DF93EC01888D882310
:1004C000C1F0EA89FB89808185FD05C0A889B989C9
:1004D0008C9186FD0EC00FB607FCF5CF808185FF9D
:1004E000F2CFA889B9898C9185FFEDCFCE0175DF58
:1004F000E8CFDF91CF91089580E090E0892B19F04B
:1005000063DF811120C080E090E0892B41F080E022
:1005100090E0892B21F00E940000811117C080E03B
:1005200090E0892B41F080E090E0892B21F00E943F
:10053000000081110EC080E090E0892B79F03BDF54
:1005400081110AC008950E940000DDCF0E940000C2
:10055000E6CF0E940000EFCF0C94000008954F9268
:100560005F926F927F928F929F92AF92BF92CF9243
:10057000DF92EF92FF922B013C0149015A01C0909A
:100580004E02D0904F02E0905002F090510220E0D5
:1005900030E040EA51E40E943D13A70196010E9419
:1005A000CA1387FF3DC020E030E040EA51E4C301B8
:1005B000B2010E943E13A70196010E943E15181633
:1005C0007CF5C0905202D0905302E0905402F0901B
:1005D000550220E030E040EA51E4C501B4010E9438
:1005E0003D13A70196010E94CA1387FF19C020E09E
:1005F00030E040EA51E4C501B4010E943E13A70176
:1006000096010E943E1518165CF40E947D0B60E175
:1006100077E280E090E093D710927C0210927B0208
:10062000FF90EF90DF90CF90BF90AF909F908F9012
:100630007F906F905F904F9008958F929F92AF92AE
:10064000BF92CF92DF92EF92FF920F931F93CF93BF
:10065000DF93109234041092330480911804CAD5A9
:10066000892B19F40E94930BF7D280913304909157
:1006700034048130910549F44091190450911A04D1
:1006800060911B0470911C0404C040E050E060E8DD
:100690007FEB4093310250933202609333027093A8
:1006A00034028130910549F440911D0450911E049B
:1006B00060911F047091200404C040E050E060E8A5
:1006C0007FEB40932D0250932E0260932F02709384
:1006D0003002019729F46091290470912A0402C024
:1006E0006FEF7FEF7093360260933502072E000C98
:1006F000880B990B0E9469146093390470933A0433
:1007000080933B0490933C042FB7F894809113049A
:1007100090911404A0911504B09116042FBF8093FA
:10072000290290932A02A0932B02B0932C02C0902E
:100730002D02D0902E02E0902F02F090300220E0A7
:1007400030E040EA50E4C701B6010E943E15181699
:100750000CF07AC08090310290903202A090330267
:10076000B090340220E030E040EA50E4C501B4012A
:100770000E943E1518160CF067C020E030E842EAEF
:1007800054E4C701B6010E94CA1387FF5DC020E090
:1007900030E046E154E4C501B4010E94CA1387FF6A
:1007A00053C020913502309136028EE780931402B7
:1007B0008093150280E390E09093170280931602D5
:1007C00082E090E09093190280931802C0921A027E
:1007D000D0921B02E0921C02F0921D0280921E0237
:1007E00090921F02A0922002B09221023093230225
:1007F00020932202A5019401C701B6010E943E1375
:10080000609324027093250280932602909327021E
:1008100081E28093280284E192E090931302809316
:100820001202EC0109E212E0699189ED92E0F7DD34
:100830000C171D07C9F78EE0E9E2F2E0AAE4B2E086
:1008400001900D928A95E1F7DF91CF911F910F9161
:10085000FF90EF90DF90CF90BF90AF909F908F90E0
:1008600008950E94B7153FB7F8948091B102909116
:10087000B202A091B302B091B40226B5A89B05C004
:100880002F3F19F00196A11DB11D3FBFBA2FA92F0F
:10089000982F8827820F911DA11DB11DBC01CD018C
:1008A00042E0660F771F881F991F4A95D1F7089578
:1008B0001F920F920FB60F9211242F933F938F9395
:1008C0009F93AF93BF938091130490911404A091D0
:1008D0001504B09116043091B00223E0230F2D3798
:1008E00020F40196A11DB11D05C026E8230F029634
:1008F000A11DB11D2093B0028093130490931404A2
:10090000A0931504B09316048091B1029091B202A5
:10091000A091B302B091B4020196A11DB11D8093C4
:10092000B1029093B202A093B302B093B402BF910C
:10093000AF919F918F913F912F910F900FBE0F908C
:100940001F9018951F920F920FB60F9211240BB69D
:100950000F922F933F934F935F936F937F938F9358
:100960009F93AF93BF93EF93FF9389ED92E035DDB3
:10097000FF91EF91BF91AF919F918F917F916F9177
:100980005F914F913F912F910F900BBE0F900FBE33
:100990000F901F9018951F920F920FB60F9211246F
:1009A0000BB60F922F938F939F93EF93FF93E0914A
:1009B000E902F091EA028081E091EF02F091F00209
:1009C00082FD12C090818091F2028F5F8F7320911F
:1009D000F302821751F0E091F202F0E0E752FD4F8E
:1009E000958F8093F20201C08081FF91EF919F91DA
:1009F0008F912F910F900BBE0F900FBE0F901F90F5
:100A000018951F920F920FB60F9211240BB60F92EA
:100A10002F933F934F935F936F937F938F939F9306
:100A2000AF93BF93EF93FF9386E793E0D6DCFF91FC
:100A3000EF91BF91AF919F918F917F916F915F9156
:100A40004F913F912F910F900BBE0F900FBE0F90C3
:100A50001F9018951F920F920FB60F9211240BB68C
:100A60000F922F938F939F93EF93FF93E0918603C1
:100A7000F09187038081E0918C03F0918D0382FDDA
:100A800012C0908180918F038F5F8F7320919003AC
:100A9000821751F0E0918F03F0E0EA58FC4F958FF8
:100AA00080938F0301C08081FF91EF919F918F917F
:100AB0002F910F900BBE0F900FBE0F901F901895A7
:100AC0001F920F920FB60F9211240BB60F922F9315
:100AD0003F934F935F936F937F938F939F93AF93C6
:100AE000BF93EF93FF9380913D0290913E028093DC
:100AF000B2008091400290914102A0914202B091D7
:100B000043020196A11DB11D8093400290934102C2
:100B1000A0934202B093430280914002909141021F
:100B2000A0914202B09143024091390250913A02A1
:100B300060913B0270913C0284179507A607B707A6
:100B400010F180913F0281111EC081E080933F022D
:100B50008091400290914102A0914202B0914302E3
:100B6000841B950BA60BB70B809340029093410218
:100B7000A0934202B0934302E0913702F091380211
:100B8000199510923F02FF91EF91BF91AF919F9104
:100B90008F917F916F915F914F913F912F910F9026
:100BA0000BBE0F900FBE0F901F90189590E0FC01A8
:100BB0003197E231F10508F04EC08827EE58FF4F1B
:100BC0008F4F0C94AF15809180008F7703C0809178
:100BD00080008F7D80938000089580918000877FC2
:100BE000F9CF84B58F7702C084B58F7D84BD089519
:100BF0008091B0008F7703C08091B0008F7D80938B
:100C0000B0000895809190008F7707C08091900088
:100C10008F7D03C080919000877F8093900008951E
:100C20008091A0008F7707C08091A0008F7D03C0C6
:100C30008091A000877F8093A0000895809120017B
:100C40008F7707C0809120018F7D03C080912001A4
:100C5000877F8093200108952F923F924F925F9259
:100C60006F927F928F929F92AF92BF92CF92DF92BC
:100C7000EF92FF920F931F93CF93DF93CDB7DEB721
:100C8000CA55D1090FB6F894DEBF0FBECDBFDE0145
:100C9000A75BBF4F80E1FD01282F11922A95E9F74C
:100CA0009E01275C3F4FF90111928A95E9F78CE18B
:100CB0002C513109F901982F11929A95E9F72C518D
:100CC0003109F90111928A95E9F780902B049090EF
:100CD0002C04A0902D04B0902E04B7FC4AC2B5019C
:100CE000A4014427552766277076411551056105F3
:100CF000704609F03EC281E090E090933404809306
:100D00003304B501A40135E176956795579547956C
:100D10003A95D1F77A0121E0E222FF24B501A4013E
:100D2000E4E17695679557954795EA95D1F7FA01ED
:100D3000E170FF27B501A40113E1769567955795FA
:100D400047951A95D1F7BA0161707727950184010B
:100D500042E136952795179507954A95D1F7A80151
:100D6000417055272401350111E176946794579419
:100D700047941A95D1F79201217033276B963FAFB4
:100D80002EAF6B97850101701127240135012FE0EB
:100D900076946794579447942A95D1F7620131E08D
:100DA000C322DD24240135013EE0769467945794F4
:100DB00047943A95D1F7120121E0222233242401ED
:100DC00035012DE076946794579447942A95D1F78E
:100DD00031E04322552493FE04C01F969C938E93CA
:100DE0001E9792FE06C081E090E067969FAF8EAF9F
:100DF000679791FE06C081E090E065969FAF8EAF49
:100E0000659790FE06C081E090E063969FAF8EAF3D
:100E1000639787FE06C081E090E061969FAF8EAF3A
:100E2000619786FE06C081E090E02F969FAF8EAF5F
:100E30002F9785FE06C081E090E02D969FAF8EAF84
:100E40002D9784FE06C081E090E02B969FAF8EAF79
:100E50002B9783FE06C081E090E029969FAF8EAF6E
:100E6000299782FE06C081E090E027969FAF8EAF63
:100E7000279781FE06C081E090E025969FAF8EAF58
:100E8000259780FE06C081E090E023969FAF8EAF4D
:100E9000239780912F0490913004A0913104B09158
:100EA0003204B7FF07C0AA24A394B12C2196BFAE89
:100EB000AEAE2197B6FF05C0AA24A394B12CBEAE56
:100EC000ADAEB5FF05C0AA24A394B12CBCAEABAEA9
:100ED000B4FF05C0AA24A394B12CBAAEA9AEB3FF47
:100EE00005C0AA24A394B12CB8AEAFAAB2FF05C026
:100EF000AA24A394B12CBEAAADAAB1FF05C0AA240E
:100F0000A394B12CBCAAABAAB0FF05C0AA24A39499
:100F1000B12CBAAAA9AAA7FF05C0AA24A394B12CF0
:100F2000B8AAAFA6A6FF05C0AA24A394B12CBEA65A
:100F3000ADA6A5FF05C0AA24A394B12CBCA6ABA660
:100F4000A4FF05C0AA24A394B12CBAA6A9A6A3FF06
:100F500005C0AA24A394B12CB8A6AFA2A2FF05C0D5
:100F6000AA24A394B12CBEA2ADA2A1FF05C0AA24BD
:100F7000A394B12CBCA2ABA2A0FF05C0AA24A39449
:100F8000B12CBAA2A9A297FF05C0AA24A394B12CA0
:100F9000B8A2AF8E96FF05C0AA24A394B12CBE8E32
:100FA000AD8E95FF05C0AA24A394B12CBC8EAB8E48
:100FB00094FF05C0AA24A394B12CBA8EA98E93FFE6
:100FC00005C0AA24A394B12CB88EAF8A92FF05C0A5
:100FD000AA24A394B12CBE8AAD8A91FF05C0AA248D
:100FE000A394B12CBC8AAB8A90FF05C0AA24A39419
:100FF000B12CBA8AA98A87FF05C0AA24A394B12C70
:10100000B88AAF8686FF05C0AA24A394B12CBE86F9
:10101000AD8685FF05C0AA24A394B12CBC86AB86FF
:1010200084FF05C0AA24A394B12CBA86A98683FFA5
:1010300005C0AA24A394B12CB886AF8282FF05C054
:10104000AA24A394B12CBE82AD8281FF05C0AA243C
:10105000A394B12CBC82AB8280FF04C081E090E0FD
:101060009A838983EE0CFF1CEE0DFF1DEE0FFF1F10
:101070006E0F7F1F660F771F460F571F440F551FB8
:101080006B962EAD3FAD6B97240F351F220F331F8C
:10109000020F131F000F111FC00ED11ECC0CDD1C40
:1010A0002C0C3D1C220C331C420C531C50922A0465
:1010B00040922904CE014D9613D48C01CE01875B5A
:1010C0009F4FDBD36B017C0169962EAD3FAD6997D5
:1010D000B801110F880B990B2130310569F40E947A
:1010E0006914A70196010E943E1320E030E040E819
:1010F0005FE30E943D1306C00E946914A701960198
:101100000E943E136093190470931A0480931B0489
:1011100090931C04CE010196E3D38C01CE01C996B5
:10112000ACD36B017C0129962EAD3FAD2997B80158
:10113000110F880B990B2130310569F40E94691455
:10114000A70196010E943E1320E030E040E85FE3F3
:101150000E943D1306C00E946914A70196010E94D7
:101160003E1360931D0470931E0480931F0490939C
:101170002004C65ADF4F0FB6F894DEBF0FBECDBFB6
:10118000DF91CF911F910F91FF90EF90DF90CF9063
:10119000BF90AF909F908F907F906F905F904F9097
:1011A0003F902F900895FC01A089B18982E08C9333
:1011B000A485B5851C92A685B7858FEC8C93108E7F
:1011C000A489B58986E08C93A289B3898C918061CA
:1011D0008C93A289B3898C9188608C93A289B389FE
:1011E0008C9180688C930288F389E02D80818F7DBB
:1011F00080830895CF93DF93282F30E0F901EC5CD2
:10120000FD4F8491F901E251FE4FD491F901E85567
:10121000FE4FC491CC2389F08111C8DCEC2FF0E0A3
:10122000EE0FFF1FE257FE4FA591B491EC91ED2315
:1012300081E090E021F480E002C080E090E0DF9166
:10124000CF9108951F93CF93DF93282F30E0F901BA
:10125000EC5CFD4F8491F901E251FE4FD491F9010C
:10126000E855FE4FC491CC23B9F0162F81119EDCB6
:10127000EC2FF0E0EE0FFF1FEC58FE4FA591B4915C
:101280009FB7F894111104C08C91D095D82302C057
:10129000EC91DE2BDC939FBFDF91CF911F910895DE
:1012A000CF93DF9390E0FC01E251FE4F2491FC01CB
:1012B000E855FE4F8491882361F190E0880F991FD3
:1012C000FC01E65AFE4FC591D491FC01EC58FE4F4B
:1012D000A591B491611109C09FB7F89488812095B8
:1012E00082238883EC912E230BC0623061F49FB778
:1012F000F8948881322F309583238883EC912E2BAC
:101300002C939FBF06C08FB7F894E8812E2B2883BB
:101310008FBFDF91CF910895EF92FF921F93CF93EC
:10132000DF9361E0809117048DDF60E08091180405
:1013300089DF61E080911804B3DFC3E2D0E0CE0121
:101340000197F1F760E0809117047CDF2197F1F7B6
:10135000C0E0D0E010E093E2E92EF12C61E0809152
:10136000170470DF60E0809118049ADFC7010197CD
:10137000F1F760E08091170465DF809118043ADF8F
:10138000892B09F021961F3011F0CC0FDD1FC7010A
:101390000197F1F71F5F103109F783E391E001979F
:1013A000F1F7CE01DF91CF911F91FF90EF9008955B
:1013B0001F93CF93DF93182FEB0161E071DF20972C
:1013C00011F460E004C0CF3FD10531F461E0812F1A
:1013D000DF91CF911F9136CFE12FF0E0EC5CFD4F14
:1013E000E4918E2F90E0FC013197E231F10508F095
:1013F0009DC08827EC57FF4F8F4F0C94AF1584B5D5
:10140000806884BDC7BD97C084B5806284BDC8BDF7
:1014100092C080918000806880938000D093890082
:10142000C093880088C08091800080628093800093
:10143000D0938B00C0938A007EC08091800088602A
:1014400080938000D0938D00C0938C0074C08091F5
:10145000B00080688093B000C093B3006CC08091EE
:10146000B00080628093B000C093B40064C08091EB
:101470009000806880939000D0939900C09398006A
:101480005AC080919000806280939000D0939B001E
:10149000C0939A0050C08091900088608093900023
:1014A000D0939D00C0939C0046C08091A0008068AE
:1014B0008093A0008091A0008F7B8093A000D093A8
:1014C000A900C093A80037C08091A00080628093DB
:1014D000A000D093AB00C093AA002DC08091A000C3
:1014E00088608093A000D093AD00C093AC0023C06F
:1014F00080912001806880932001D0932901C093BE
:10150000280119C080912001806280932001D0932E
:101510002B01C0932A010FC0809120018860809325
:101520002001D0932D01C0932C0105C0C038D105F6
:101530000CF04CCF46CFDF91CF911F9108958F9241
:101540009F92AF92BF92CF92DF92EF92FF926B0188
:101550007C0189D94B015C01C114D104E104F1047F
:10156000E9F081D9DC01CB0188199909AA09BB09E5
:10157000883E9340A105B10578F321E0C21AD10855
:10158000E108F10888EE880E83E0981EA11CB11CCA
:10159000C114D104E104F10421F7DECFFF90EF90F4
:1015A000DF90CF90BF90AF909F908F900895EF9273
:1015B000FF921F93CF93DF93182F809118041ADEA8
:1015C000892B09F4B0D061E0809117043BDE61E023
:1015D0008091180437DE61E08091180461DEC3E277
:1015E000D0E0CE010197F1F760E0809117042ADE88
:1015F0002197F1F7D12FC0E083E2E82EF12C61E0D2
:10160000809117041FDED7FF02C061E001C060E0D7
:101610008091180417DEC7010197F1F760E080910F
:10162000170410DEC73021F460E08091180438DE22
:10163000C7010197F1F7DD0FCF5FC83001F783E3F2
:1016400091E00197F1F7CAE080911804D3DD892B6E
:1016500039F462DE8150C1E0811749F0C0E007C073
:101660006EE170E080E090E06ADFC15069F78C2F96
:10167000DF91CF911F91FF90EF900895EF92FF922D
:101680000F931F93CF93DF93C5EBD2E09D878C8799
:101690007F876E87598B488B2A8B3B8B1D8B0C8BDE
:1016A000FF8AEE8A622F88E1CDDD11E08A89612F01
:1016B000681B89E1C7DD6C898AE1C4DD8C89612FF3
:1016C000681B8BE1BFDD6E8986E1BCDD8E89612FF1
:1016D000681B87E1B7DD6C857D8585E069DE6E85F9
:1016E0007F8582E065DE6889798983E0DF91CF912B
:1016F0001F910F91FF90EF905BCEEF92FF920F93AF
:101700001F93E12CF12C00E010E020E030E040E0FD
:1017100050E060E070E080E090E0B0DF1F910F915A
:10172000FF90EF9008950F931F93CF93DF93109244
:101730002B0410922C0410922D0410922E0410925F
:101740002F0410923004109231041092320461E0A0
:101750008091170477DD60E08091180473DD61E00B
:10176000809118049DDDC3E2D0E0CE010197F1F72E
:1017700060E08091170466DD2197F1F7C0E003E295
:1017800010E061E0809117045DDD60E08091180455
:1017900087DDC8010197F1F760E08091170452DD01
:1017A0008091180427DD892B51F1C032A0F480917B
:1017B0002B0490912C04A0912D04B0912E0401963D
:1017C000A11DB11D80932B0490932C04A0932D0494
:1017D000B0932E0414C080912F0490913004A091F6
:1017E0003104B09132040196A11DB11D80932F04E4
:1017F00090933004A0933104B093320416C0CF31DB
:10180000A0F480912B0490912C04A0912D04B09110
:101810002E04880F991FAA1FBB1F80932B0490933F
:101820002C04A0932D04B0932E0480EE8C0F8F31E6
:10183000A0F480912F0490913004A0913104B091D4
:101840003204880F991FAA1FBB1F80932F04909307
:101850003004A0933104B0933204C8010197F1F72A
:10186000CF5FC03409F08DCF83E391E00197F1F7AA
:10187000DF91CF911F910F910895FC0164857585CB
:10188000660F771F82859385680F791F660F771F14
:1018900080859185680F791F660F771F86819781F4
:1018A000680F791F660F771F84819581680F791FF4
:1018B000660F771F82819381680F791F660F771FEC
:1018C00080819181680F791F072E000C880B990B7E
:1018D0000E94691420E030E040E05CE30C9449157C
:1018E000FC01828D938D880F991F208D318D820F81
:1018F000931F880F991F26893789820F931F880F9E
:10190000991F24893589820F931F880F991F228977
:101910003389820F931F880F991F20893189820F85
:10192000931F880F991F26853785820F931F880F75
:10193000991F24853585820F931F880F991F228553
:101940003385820F931F880F991F20853185820F61
:10195000931F880F991F26813781820F931F880F4D
:10196000991F24813581820F931F880F991F22812F
:101970003381820F931F880F991F20813181820F3D
:10198000931F0895CF93DF93CDB7DEB72B970FB694
:10199000F894DEBF0FBECDBF789484B5826084BD5D
:1019A00084B5816084BD85B5826085BD85B5816063
:1019B00085BD80916E00816080936E0010928100E1
:1019C000809181008260809381008091810081609C
:1019D000809381008091800081608093800080915D
:1019E000B10084608093B1008091B00081608093E9
:1019F000B00080919100826080939100809191006D
:101A0000816080939100809190008160809390002C
:101A10008091A10082608093A1008091A1008160EB
:101A20008093A1008091A00081608093A0008091AC
:101A30002101826080932101809121018160809346
:101A400021018091200181608093200180917A00A2
:101A5000846080937A0080917A00826080937A001B
:101A600080917A00816080937A0080917A0080680A
:101A700080937A001092C10086E793E094DB89EDB1
:101A800092E091DB61E0809117040ADC60E08091D4
:101A9000180406DC61E08091170402DC61E08091AB
:101AA0001704D0DB6EE170E080E090E048DD60ED8F
:101AB00077E080E090E043DD60E080911704C2DBD6
:101AC0000FEF1FE701501109B1F18091180492DB6B
:101AD000892BC1F728DE80912F0490913004A091CA
:101AE0003104B0913204883F9F4FA105B10519F52B
:101AF00061E070E080E090E022DD83E7898385E0AB
:101B00008A838EE08B8385E18C831D821E8288E22E
:101B10008F838E010F5F1F4F7E0188E0E80EF11C5E
:101B2000D8018D918D0143DDF7DB0E151F05C1F73F
:101B300080E13DDDF1DBF2E32F2E312C10923404F5
:101B4000109233048091180455DB892B11F4EBDDDE
:101B500083D8C0901904D0901A04E0901B04F09030
:101B60001C04C0929B04D0929C04E0929D04F092CD
:101B70009E0440901D0450901E0460901F047090BD
:101B800020044092FD045092FE046092FF04709283
:101B90000005809167049091680401969093680411
:101BA000809367048091630490916404A09165041C
:101BB000B091660488879987AA87BB8700915D04E6
:101BC00010915E04F801EE0FFF1FEE0FFF1FE759A3
:101BD000FB4FC082D182E282F382E9E6EE2EE4E09E
:101BE000FE2E812C912C5401C12CD12CC016D10673
:101BF000B4F49FEFC91AD90AD70114962D913D91DB
:101C00004D915C911797F701219331934193519333
:101C10007F01C501B40132D54B015C01E7CFB801AA
:101C2000110F880B990B55D69B01AC01C501B4016E
:101C3000B5D560939B0470939C0480939D0490930E
:101C40009E046093190470931A0480931B0490936C
:101C50001C048091C9049091CA0401969093CA040F
:101C60008093C9040091BF041091C004F801EE0FE5
:101C7000FF1FEE0FFF1FE553FB4F40825182628230
:101C800073826BECE62E64E0F62E812C912C5401CD
:101C9000C12CD12CC016D106B4F4FFEFCF1ADF0A45
:101CA000D70114962D913D914D915C911797F701B5
:101CB00021933193419351937F01C501B401DED447
:101CC0004B015C01E7CFB801110F880B990B01D6CE
:101CD0009B01AC01C501B40161D56093FD04709313
:101CE000FE048093FF049093000560931D0470939D
:101CF0001E0480931F0490932004F1E02F1A3108F2
:101D000009F01CCF1092350410923604109237045B
:101D10001092380461E082E2C3DA8AE090E0A0E049
:101D2000B0E08093390290933A02A0933B02B093C3
:101D30003C028DE193E090933802809337028091CA
:101D400070008E7F809370008091B0008C7F8093B4
:101D5000B0008091B100877F8093B1008091B60080
:101D60008F7D8093B600809170008D7F809370008E
:101D70008091B10084608093B1008091B1008C7F2C
:101D80008093B10086E090E090933E0280933D0204
:101D900010924002109241021092420210924302AD
:101DA00010923F0280913D0290913E028093B200DA
:101DB00080917000816080937000109247021092B1
:101DC000460282E090E090937C0280937B0283E065
:101DD00090E0909386028093850288E790E090934C
:101DE00088028093870280E090E8A3E1B4E48093C6
:101DF0007D0290937E02A0937F02B093800280E0E8
:101E000090E0A1E6B3E48093810290938202A093D4
:101E10008302B093840261E082E214DA80917B0253
:101E200090917C028130910541F08230910589F1D9
:101E3000892B09F0A0C161DC9EC18091850290913F
:101E4000860228EC289F5001299FB00C1124C12C38
:101E5000D12CCA14DB04BCF4EE24E394F12C01E091
:101E600010E021E030E044E650E064E670E084E613
:101E700090E004DC65E070E080E090E060DB2FEF54
:101E8000C21AD20AE6CF39DC10927C0210927B0291
:101E900072C1C0903504D0903604E0903704F090C1
:101EA00038046091560270915702072E000C880B7F
:101EB000990B0FD54B015C019B01AC01C701B60129
:101EC000DCD32B013C0120E030E0A901D7D5181666
:101ED0001CF4C301B20103C0C301B2019058C6D4BF
:101EE0008B017093490260934802643071050CF4D1
:101EF00051C080914602909147020196909347020B
:101F000080934602A5019401C701B601B7D5181602
:101F100034F4043B11051CF481E090E00DC0A501F0
:101F20009401C701B60136D418165CF0043B1105C4
:101F30000CF0F1C18FEF9FEF909345028093440224
:101F400029C0A5019401C701B60198D5181654F40B
:101F5000053B1105FCF0AFEFBFEFB0934502A09336
:101F6000440210C0A5019401C701B60113D418168C
:101F70008CF0053B110574F081E090E090934502F0
:101F80008093440288E691E0801B910B9093490274
:101F9000809348028091480290914902899734F0D9
:101FA000E8E2F0E0F0934902E09348022090480212
:101FB00030904902F4E02F1631040CF093C01092D7
:101FC00047021092460230E5C32ED12CE12CF12CB1
:101FD00001E010E020E030E044E650E062ED70E027
:101FE00080E090E04BDB20918102309182024091B1
:101FF00083025091840260917D0270917E028091F3
:102000007F02909180020E94AF026AE070E080E05F
:1020100090E095DA21E0C21AD108C1F68090520210
:1020200090905302A0905402B090550240908102CB
:10203000509082026090830270908402A501940106
:10204000C301B2011AD36B017C0120914E02309181
:102050004F02409150025091510260917D02709167
:102060007E0280917F029091800207D39B01AC0198
:10207000C701B60193D366D320E030E044EB53E4CC
:1020800008D52BED3FE049EC50E488D3EFD36B014A
:102090007C01A3019201C501B401F0D4181624F407
:1020A0001C141D0474F00AC0A3019201C501B401FF
:1020B00071D387FF3BC01C141D041CF463E371E063
:1020C00002C06FE770E06C197D09072E000C880BC9
:1020D000990BFFD3609335047093360480933704D3
:1020E0009093380480914602909147020397F4F050
:1020F0002091440230914502C101499637FF07C043
:10210000E12CF12C00E010E020E030E007C0EE24EC
:10211000E394F12C01E010E021E030E0AC01BC01DF
:10212000ADDA109245021092440201C0E6DA209125
:102130008102309182024091830250918402609129
:102140007D0270917E0280917F02909180020E94B8
:10215000AF0220918102309182024091830250911E
:10216000840260917D0270917E0280917F02909145
:1021700080020E94AF0289ED92E00E94AD01182F0B
:1021800089ED92E00E94AD011E3709F0A2C08E37A2
:1021900009F0B5C080939B0280939C020DE912E088
:1021A00089ED92E00E94AD01D8018D938D01E0EBA5
:1021B000F2E0EA17FB07A1F78BE992E090938A021D
:1021C00080938902ACE9B2E0B0938C02A0938B02B9
:1021D000EDE9F2E0F0938E02E0938D028FE992E058
:1021E0009093900280938F02A1EAB2E0B0939202A2
:1021F000A0939102E3EAF2E0F0939402E093930259
:1022000087EA92E090939602809395028BEA92E09F
:1022100090939802809397028FEA92E090939A02AB
:10222000809399028091AF02813209F068C02091B9
:10223000A7023091A8024091A9025091AA02609190
:10224000A3027091A4028091A5029091A60216D2D9
:102250009B01AC016091AB027091AC028091AD0228
:102260009091AE0297D281114AC080919F029091C5
:10227000A002029709F043C060E082E20E942209B6
:102280008091A1029091A20290937C0280937B02A4
:102290008091A3029091A402A091A502B091A60200
:1022A00080937D0290937E02A0937F02B093800280
:1022B0008091A7029091A802A091A902B091AA02D0
:1022C0008093810290938202A0938302B093840250
:1022D00016C01434A1F4853691F4109358028093FB
:1022E00059020AE512E092E00B37190741F089ED37
:1022F00092E00E94AD01D8018D938D01F4CF89ED5C
:1023000092E00E945B0262E370E080E090E017D907
:102310000E947C0283CDA5019401C701B601AED312
:1023200018160CF415CE25CE4F925F926F927F92C5
:102330008F929F92AF92BF92CF92DF92EF92FF92D5
:102340000F931F93CF93DF93E9EDF2E01382128294
:1023500048EE53E060E070E0448355836683778302
:1023600084E092E09183808325E331E03587248700
:1023700024E331E03787268720E331E0318B208B5F
:1023800021E331E0338B228B22E331E0358B248B48
:1023900026E331E0378B268B118E128E138E148E2E
:1023A000E6E7F3E0138212824483558366837783E2
:1023B0009183808385EC90E09587848784EC90E01E
:1023C0009787868780EC90E0918B808B81EC90E002
:1023D000938B828B82EC90E0958B848B86EC90E0E3
:1023E000978B868B118E128E138E148EE5E0F5E09E
:1023F00081E095E0978F868F89E394E0958F848FB5
:1024000085E394E091A380A312AE12AA13AA14AAA2
:1024100015AA80E090E0AFE7B3E486AB97ABA0AF3E
:10242000B1AF84E690E0A0E0B0E086A797A7A0ABAC
:10243000B1AB81E090E0918F808F938F828F83AFDB
:1024400080E090E0A0E2B0E480839183A283B38334
:1024500080E090E0A0EAB1E484839583A683B7830B
:1024600040E050E060E87FE34087518762877387F0
:1024700080E090E0A0E2B0EC84879587A687B787DC
:1024800080E090E0A0E0B0EC808B918BA28BB38BCE
:1024900080E090E0A0E2B1EC848B958BA68BB78BAB
:1024A0002FB7F8948091130490911404A09115040F
:1024B000B09116042FBF06A517A520A931A9801B2E
:1024C000910BA20BB30B82A393A3A4A3B5A3C7E163
:1024D000D4E085E1888384E189831E821F82188687
:1024E00019861A821B821C821D821E861F86188AEC
:1024F000198A1A861B861C861D86AFE9B4E01896D9
:102500004D935D936D937C931B971C964D935D93B8
:102510006D937C931F97812C912C80E4A82EBA2C6C
:1025200058968D929D92AD92BC925B979AE9C92E76
:1025300099E9D92EED2C9EE3F92E5096CD92DD929D
:10254000ED92FC92539700E010E020E231E45496C3
:102550000D931D932D933C9357971D921D921D92A1
:102560001C9213971092FD041092FE041092FF0427
:102570001092000500E010E028E432E496960D93F6
:102580001D932D933C939997412C512CE6E96E2E87
:10259000E2E47E2E92964D925D926D927C9295979A
:1025A0009B961C921E929A97EDE3F4E04087518728
:1025B000628773874487558766877787808E918E79
:1025C000A28EB38EC08AD18AE28AF38A4AE959E997
:1025D0006DE171E4448B558B668B778B1082118291
:1025E0001282138210929B0410929C0410929D04FC
:1025F00010929E0406A317A320A731A740E050E045
:1026000068EC72E442A353A364A375A313A612A6B5
:102610001B8A1A8A1D8E1C8E46E050E091965C93B0
:102620004E9390972CE1ABECB4E0ED01822F199220
:102630008A95E9F784E090E09093E8048093E704BA
:1026400051A340A3E9E6F4E0DF011D922A95E9F7E2
:102650009093860480938504DF91CF911F910F9111
:10266000FF90EF90DF90CF90BF90AF909F908F90B2
:102670007F906F905F904F9008955058BB27AA2786
:102680000ED0C2C1B3D130F0B8D120F031F49F3FA9
:1026900011F41EF483C10EF4E095E7FB79C1E92F34
:1026A000C4D180F3BA17620773078407950718F03F
:1026B00071F49EF5DCC10EF4E0950B2EBA2FA02D1F
:1026C0000B01B90190010C01CA01A0011124FF27DF
:1026D000591B99F0593F50F4503E68F11A16F040DA
:1026E000A22F232F342F4427585FF3CF46953795D9
:1026F0002795A795F0405395C9F77EF41F16BA0B9E
:10270000620B730B840BBAF09150A1F0FF0FBB1F4B
:10271000661F771F881FC2F70EC0BA0F621F731F94
:10272000841F48F4879577956795B795F7959E3FF1
:1027300008F0B3CF9395880F08F09927EE0F97957F
:1027400087950895DF93DD27B92FBF7740E85FE3D2
:102750001616170648075B0710F4D92F93D19F93DD
:102760008F937F936F93F8D1ECE2F1E01AD14CD1C3
:102770002F913F914F915F9198D1DD2349F090586F
:10278000A2EA2AED3FE049EC5FE3D0785D2787DFDE
:10279000DF913AC1D9D008F481E008950CD034C15A
:1027A0002CD140F023D130F021F45F3F19F0F0C07C
:1027B00051115EC1F3C039D198F39923C9F3552360
:1027C000B1F3951B550BBB27AA2762177307840724
:1027D00038F09F5F5F4F220F331F441FAA1FA9F3DA
:1027E00033D00E2E3AF0E0E830D091505040E695CC
:1027F000001CCAF729D0FE2F27D0660F771F881F2D
:10280000BB1F261737074807AB07B0E809F0BB0B1B
:10281000802DBF01FF2793585F4F2AF09E3F51053F
:1028200068F0B6C025C15F3FECF3983EDCF38695B7
:1028300077956795B795F7959F5FC9F7880F911DB5
:102840009695879597F90895E1E0660F771F881FA1
:10285000BB1F621773078407BA0720F0621B730B54
:10286000840BBA0BEE1F88F7E095089504D06894A6
:10287000B111FEC00895E1D088F09F5790F0B92FB4
:102880009927B751A0F0D1F0660F771F881F991FC5
:102890001AF0BA95C9F712C0B13081F0E8D0B1E0B2
:1028A0000895E5C0672F782F8827B85F39F0B93FC2
:1028B000CCF3869577956795B395D9F73EF49095C7
:1028C0008095709561957F4F8F4F9F4F0895E89445
:1028D00009C097FB3EF490958095709561957F4F68
:1028E0008F4F9F4F9923A9F0F92F96E9BB27939516
:1028F000F695879577956795B795F111F8CFFAF426
:10290000BB0F11F460FF1BC06F5F7F4F8F4F9F4F56
:1029100016C0882311F096E911C0772321F09EE8B4
:10292000872F762F05C0662371F096E8862F70E01A
:1029300060E02AF09A95660F771F881FDAF7880FF4
:102940009695879597F90895990F0008550FAA0B4A
:10295000E0E8FEEF16161706E807F907C0F01216B2
:102960001306E407F50798F0621B730B840B950BB5
:1029700039F40A2661F0232B242B252B21F408950A
:102980000A2609F4A140A6958FEF811D811D0895A7
:1029900097F99F6780E870E060E008959FEF80EC12
:1029A0000895DF93CF931F930F93FF92EF92DF92DF
:1029B0007B018C01689405C0DA2EEF0176D0FE0110
:1029C000E894A5912591359145915591AEF3EF018C
:1029D00066DEFE019701A801DA9479F7DF90EF90A7
:1029E000FF900F911F91CF91DF91089500240A94D9
:1029F0001616170618060906089500240A941216DA
:102A00001306140605060895092E0394000C11F40C
:102A1000882352F0BB0F40F4BF2B11F460FF04C0B9
:102A20006F5F7F4F8F4F9F4F089557FD9058440F12
:102A3000551F59F05F3F71F04795880F97FB991F1D
:102A400061F09F3F79F087950895121613061406DA
:102A5000551FF2CF4695F1DF08C016161706180667
:102A6000991FF1CF86957105610508940895E89442
:102A7000BB2766277727CB0197F9089565DF08F410
:102A80008FEF08959B01AC0160E070E080E89FE368
:102A900085CE0BD0B9CFAADF28F0AFDF18F0952391
:102AA00009F076CF7BCF1124E3CFBFDFA0F3959F52
:102AB000D1F3950F50E0551F629FF001729FBB2725
:102AC000F00DB11D639FAA27F00DB11DAA1F649FD1
:102AD0006627B00DA11D661F829F2227B00DA11D84
:102AE000621F739FB00DA11D621F839FA00D611D0A
:102AF000221F749F3327A00D611D231F849F600D2B
:102B0000211D822F762F6A2F11249F5750408AF063
:102B1000E1F088234AF0EE0FFF1FBB1F661F771FEF
:102B2000881F91505040A9F79E3F510570F030CF5B
:102B30009FCF5F3FECF3983EDCF3869577956795E2
:102B4000B795F795E7959F5FC1F7FE2B880F911D0D
:102B50009695879597F908959B01AC019ACFEE0F52
:102B6000FF1F881F8BBF0790F691E02D199481E01D
:0A2B700090E0F89400C0F894FFCF45
:102B7A00000000000F0270019E015B02CF01AD014F
:022B8A00C10187
:00000001FF
