:1000000026C1000055C1000053C1000051C10000CD
:100010004FC100004DC100004BC1000049C10000AC
:1000200047C1000045C1000043C1000041C10000BC
:100030003FC100003DC100003BC100000C94420ADA
:1000400037C1000035C1000033C1000031C10000DC
:100050002FC100002DC100002BC100000C943A09F3
:1000600027C100000C940C0A0C94E30921C1000084
:100070001FC100001DC100001BC1000019C100000C
:1000800017C1000015C1000013C1000011C100001C
:100090000FC100000DC100000BC1000009C100002C
:1000A00007C1000005C1000003C1000001C100003C
:1000B000FFC00000FDC00000FBC00000F9C0000050
:1000C000F7C00000F5C00000F3C00000F1C0000060
:1000D000EFC00000EDC000000C94AD090C94840941
:1000E000E7C000009B019E018D0191019701D501A0
:1000F000A201A601AC01B001B401BA01BE01C20166
:10010000D501C801CC01D0019A089F08A408AE0807
:10011000B8083109C208CA08D208DC08E608F008A5
:10012000FF080909310913091D09270900002100E9
:10013000240027002A002D003000330001010000B8
:10014000040107010A0100002200250028002B00FD
:100150002E003100340002010000050108010B01EE
:10016000000020002300260029002C002F00320070
:100170000001000003010601090105050505070549
:1001800008080808020202020A0A08080404040413
:10019000010101010101010103030303030303033F
:1001A000040707070C0C0C0C0C0C0C0C02020202CE
:1001B00006060606060606060B0B0B0B0B0B0B0BB7
:1001C0000102102020080810204010204080020169
:1001D000020108040201010204081020408080404E
:1001E000201008040201800402018040201008044D
:1001F00002010804020101020408102040800102EB
:1002000004081020408000000A0B02090C0D0E08A3
:1002100007030401000000000000000000000000CF
:1002200000000000000000000000000000000000CE
:10023000000012111000000000000000000000008B
:10024000000000000000000000000000030F112467
:100250001FBECFEFD1E2DEBFCDBF00E00CBF12E08A
:10026000A0E0B2E0E8E4F5E200E00BBF02C00790D6
:100270000D92A231B107D9F724E0A2E1B2E001C0AA
:100280001D92A53EB207E1F711E0C7E2D1E000E020
:1002900006C021970109802FFE010E949612C632E6
:1002A000D10780E00807A9F70E941E0C0C94A21247
:1002B000A7CEFC01A089B18982E08C93A485B58585
:1002C0001C92A685B7858FEC8C93108EA489B58976
:1002D00086E08C93A289B3898C9180618C93A289EA
:1002E000B3898C9188608C93A289B3898C91806842
:1002F0008C930288F389E02D80818F7D808308951F
:1003000090E0FC013197E231F10508F04EC08827FA
:10031000EE58FF4F8F4F0C949612809180008F778C
:1003200003C0809180008F7D80938000089580912C
:100330008000877FF9CF84B58F7702C084B58F7D29
:1003400084BD08958091B0008F7703C08091B00084
:100350008F7D8093B0000895809190008F7707C0C3
:10036000809190008F7D03C080919000877F809363
:10037000900008958091A0008F7707C08091A00021
:100380008F7D03C08091A000877F8093A000089597
:10039000809120018F7707C0809120018F7D03C05D
:1003A00080912001877F8093200108953FB7F894C2
:1003B0008091550290915602A0915702B091580237
:1003C00026B5A89B05C02F3F19F00196A11DB11DB0
:1003D0003FBFBA2FA92F982F8827820F911DA11DEB
:1003E000B11DBC01CD0142E0660F771F881F991F28
:1003F0004A95D1F708958F929F92AF92BF92CF9274
:10040000DF92EF92FF926B017C01D0DF4B015C0128
:10041000C114D104E104F104E9F0C8DFDC01CB012F
:1004200088199909AA09BB09883E9340A105B1051D
:1004300078F321E0C21AD108E108F10888EE880EAD
:1004400083E0981EA11CB11CC114D104E104F10485
:1004500021F7DECFFF90EF90DF90CF90BF90AF906D
:100460009F908F900895CF92DF92EF92FF920F931B
:100470001F93CF93DF936C017A018B01C0E0D0E032
:10048000CE15DF0581F0D8016D918D01D601ED917A
:10049000FC910190F081E02DC6011995892B11F096
:1004A0002196EECF7E01C701DF91CF911F910F9171
:1004B000FF90EF90DF90CF900895089580E090E056
:1004C0000895FC01538D448D252F30E0842F90E05A
:1004D000821B930B541710F0CF960895019708953F
:1004E000FC01918D828D981761F0828DDF01A80F3C
:1004F000B11D5D968C91928D9F5F9F73928F90E05E
:1005000008958FEF9FEF0895FC01918D828D9817CC
:1005100031F0828DE80FF11D858D90E008958FEF09
:100520009FEF0895FC01918D228D892F90E0805CD2
:100530009F4F821B91098F73992708958DE792E051
:10054000F1DF21E0892B09F420E0822F08958AE170
:1005500093E0E8DF21E0892B09F420E0822F089561
:10056000FC01848DDF01A80FB11DA35ABF4F2C9150
:10057000848D90E001968F739927848FA689B7891F
:100580002C93A089B1898C91837080648C93938D16
:10059000848D981306C00288F389E02D80818F7DB9
:1005A00080830895EF92FF920F931F93CF93DF9371
:1005B000EC0181E0888F9B8D8C8D981305C0E889B4
:1005C000F989808185FD25C0F62E0B8D10E00F5F27
:1005D0001F4F0F731127E02E8C8DE8120BC00FB642
:1005E00007FCFACFE889F989808185FFF5CFCE0134
:1005F000B7DFF2CF8B8DFE01E80FF11DE35AFF4FFD
:10060000F0829FB7F8940B8FEA89FB898081806222
:100610000AC09FB7F894EE89FF896083E889F98959
:1006200080818370806480839FBF81E090E0DF9150
:10063000CF911F910F91FF90EF900895CF93DF938B
:10064000EC01888D8823C1F0EA89FB89808185FDD2
:1006500005C0A889B9898C9186FD0EC00FB607FC2C
:10066000F5CF808185FFF2CFA889B9898C9185FF6C
:10067000EDCFCE0175DFE8CFDF91CF91089580E017
:1006800090E0892B19F063DF811120C080E090E0B9
:10069000892B41F080E090E0892B21F00E9400003E
:1006A000811117C080E090E0892B41F080E090E05C
:1006B000892B21F00E94000081110EC080E090E0A3
:1006C000892B79F03BDF81110AC008950E94000058
:1006D000DDCF0E940000E6CF0E940000EFCF0C9417
:1006E000000008952F923F924F925F926F927F92F7
:1006F0008F929F92AF92BF92CF92DF92EF92FF9232
:100700000F931F93CF93DF93CDB7DEB7CA55D109AF
:100710000FB6F894DEBF0FBECDBFDE01A75BBF4FA3
:1007200080E1FD01282F11922A95E9F79E01275CAF
:100730003F4FF90111928A95E9F78CE12C5131096B
:10074000F901982F11929A95E9F72C513109F90185
:1007500011928A95E9F78090CF039090D003A090F2
:10076000D103B090D203B7FC4AC2B501A40144271B
:10077000552766277076411551056105704609F0C9
:100780003EC281E090E09093D8038093D703B501F7
:10079000A40135E176956795579547953A95D1F738
:1007A0007A0121E0E222FF24B501A401E4E176957B
:1007B000679557954795EA95D1F7FA01E170FF27BC
:1007C000B501A40113E176956795579547951A955C
:1007D000D1F7BA01617077279501840142E136951E
:1007E0002795179507954A95D1F7A8014170552788
:1007F0002401350111E176946794579447941A9532
:10080000D1F79201217033276B963FAF2EAF6B97D4
:10081000850101701127240135012FE0769467943A
:10082000579447942A95D1F7620131E0C322DD2421
:10083000240135013EE076946794579447943A95A5
:10084000D1F7120121E022223324240135012DE0C9
:1008500076946794579447942A95D1F731E04322D0
:10086000552493FE04C01F969C938E931E9792FE70
:1008700006C081E090E067969FAF8EAF679791FECC
:1008800006C081E090E065969FAF8EAF659790FEC1
:1008900006C081E090E063969FAF8EAF639787FEBE
:1008A00006C081E090E061969FAF8EAF619786FEB3
:1008B00006C081E090E02F969FAF8EAF2F9785FE08
:1008C00006C081E090E02D969FAF8EAF2D9784FEFD
:1008D00006C081E090E02B969FAF8EAF2B9783FEF2
:1008E00006C081E090E029969FAF8EAF299782FEE7
:1008F00006C081E090E027969FAF8EAF279781FEDC
:1009000006C081E090E025969FAF8EAF259780FED0
:1009100006C081E090E023969FAF8EAF2397809131
:10092000D3039091D403A091D503B091D603B7FF20
:1009300007C0AA24A394B12C2196BFAEAEAE2197D6
:10094000B6FF05C0AA24A394B12CBEAEADAEB5FFD0
:1009500005C0AA24A394B12CBCAEABAEB4FF05C0B5
:10096000AA24A394B12CBAAEA9AEB3FF05C0AA24A1
:10097000A394B12CB8AEAFAAB2FF05C0AA24A39429
:10098000B12CBEAAADAAB1FF05C0AA24A394B12C74
:10099000BCAAABAAB0FF05C0AA24A394B12CBAAAE2
:1009A000A9AAA7FF05C0AA24A394B12CB8AAAFA6F0
:1009B000A6FF05C0AA24A394B12CBEA6ADA6A5FF90
:1009C00005C0AA24A394B12CBCA6ABA6A4FF05C065
:1009D000AA24A394B12CBAA6A9A6A3FF05C0AA2451
:1009E000A394B12CB8A6AFA2A2FF05C0AA24A394D9
:1009F000B12CBEA2ADA2A1FF05C0AA24A394B12C24
:100A0000BCA2ABA2A0FF05C0AA24A394B12CBAA299
:100A1000A9A297FF05C0AA24A394B12CB8A2AF8EB7
:100A200096FF05C0AA24A394B12CBE8EAD8E95FF6F
:100A300005C0AA24A394B12CBC8EAB8E94FF05C034
:100A4000AA24A394B12CBA8EA98E93FF05C0AA2420
:100A5000A394B12CB88EAF8A92FF05C0AA24A394A8
:100A6000B12CBE8AAD8A91FF05C0AA24A394B12CF3
:100A7000BC8AAB8A90FF05C0AA24A394B12CBA8A81
:100A8000A98A87FF05C0AA24A394B12CB88AAF868F
:100A900086FF05C0AA24A394B12CBE86AD8685FF2F
:100AA00005C0AA24A394B12CBC86AB8684FF05C0E4
:100AB000AA24A394B12CBA86A98683FF05C0AA24D0
:100AC000A394B12CB886AF8282FF05C0AA24A39458
:100AD000B12CBE82AD8281FF05C0AA24A394B12CA3
:100AE000BC82AB8280FF04C081E090E09A8389835E
:100AF000EE0CFF1CEE0DFF1DEE0FFF1F6E0F7F1F94
:100B0000660F771F460F571F440F551F6B962EAD6C
:100B10003FAD6B97240F351F220F331F020F131F9A
:100B2000000F111FC00ED11ECC0CDD1C2C0C3D1C67
:100B3000220C331C420C531C5092CE034092CD0326
:100B4000CE014D9629D68C01CE01875B9F4FF3D500
:100B50006B017C0169962EAD3FAD6997B801110F0D
:100B6000880B990B2130310569F40E947F11A70190
:100B700096010E94AD1020E030E040E85FE30E9463
:100B8000AC1006C00E947F11A70196010E94AD1013
:100B90006093BD037093BE038093BF039093C00323
:100BA000CE010196F9D58C01CE01C996C4D56B0151
:100BB0007C0129962EAD3FAD2997B801110F880B06
:100BC000990B2130310569F40E947F11A70196012C
:100BD0000E94AD1020E030E040E85FE30E94AC10DE
:100BE00006C00E947F11A70196010E94AD1060937C
:100BF000C1037093C2038093C3039093C403C65A86
:100C0000DF4F0FB6F894DEBF0FBECDBFDF91CF919F
:100C10001F910F91FF90EF90DF90CF90BF90AF901A
:100C20009F908F907F906F905F904F903F902F900C
:100C300008950E949E12CF93DF93282F30E0F90190
:100C4000EA5FFD4F8491F901E054FE4FD491F90120
:100C5000E658FE4FC491CC2389F0811151DBEC2F73
:100C6000F0E0EE0FFF1FE05AFE4FA591B491EC911A
:100C7000ED2381E090E021F480E002C080E090E08C
:100C8000DF91CF9108958F929F92AF92BF92CF92B2
:100C9000DF92EF92FF920F931F93CF93DF93109207
:100CA000D8031092D7038091BC03C5DF892B11F4C0
:100CB00098D418DD8091D7039091D80381309105A5
:100CC00049F44091BD035091BE036091BF03709100
:100CD000C00304C040E050E060E87FEB40934E0268
:100CE00050934F02609350027093510281309105EE
:100CF00049F44091C1035091C2036091C3037091C4
:100D0000C40304C040E050E060E87FEB40934A0237
:100D100050934B0260934C0270934D02019729F45B
:100D20006091CD037091CE0302C06FEF7FEF70939F
:100D3000530260935202072E000C880B990B0E94FD
:100D40007F116093DD037093DE038093DF03909344
:100D5000E0032FB7F8948091B7039091B803A09166
:100D6000B903B091BA032FBF809346029093470214
:100D7000A0934802B0934902C0904A02D0904B021F
:100D8000E0904C02F0904D0220E030E040EA50E468
:100D9000C701B6010E942F1218160CF07AC080907D
:100DA0004E0290904F02A0905002B090510220E06D
:100DB00030E040EA50E4C501B4010E942F12181639
:100DC0000CF067C020E030E842EA54E4C701B60105
:100DD0000E94111187FF5DC020E030E046E154E43D
:100DE000C501B4010E94111187FF53C02091520226
:100DF000309153028EE7809314028093150280E3B2
:100E000090E0909317028093160281E090E0909317
:100E1000190280931802C0921A02D0921B02E0922B
:100E20001C02F0921D0280921E0290921F02A0925C
:100E30002002B09221023093230220932202A501C6
:100E40009401C701B6010E94AD1060932402709313
:100E50002502809326029093270281E28093280244
:100E600084E192E09093130280931202EC0109E274
:100E700012E069918DE792E095DB0C171D07C9F729
:100E80008EE0E6E4F2E0A6E3B2E001900D928A95EE
:100E9000E1F7DF91CF911F910F91FF90EF90DF90DD
:100EA000CF90BF90AF909F908F9008951F93CF9356
:100EB000DF93282F30E0F901EA5FFD4F8491F901BB
:100EC000E054FE4FD491F901E658FE4FC491CC2373
:100ED000B9F0162F811114DAEC2FF0E0EE0FFF1F9E
:100EE000EA5BFE4FA591B4919FB7F894111104C02D
:100EF0008C91D095D82302C0EC91DE2BDC939FBF60
:100F0000DF91CF911F910895CF93DF9390E0FC0183
:100F1000E054FE4F2491FC01E658FE4F8491882353
:100F200061F190E0880F991FFC01E45DFE4FC591CF
:100F3000D491FC01EA5BFE4FA591B491611109C007
:100F40009FB7F8948881209582238883EC912E2383
:100F50000BC0623061F49FB7F8948881322F3095CE
:100F600083238883EC912E2B2C939FBF06C08FB7D1
:100F7000F894E8812E2B28838FBFDF91CF910895BD
:100F8000EF92FF921F93CF93DF9361E08091BB03B9
:100F90008DDF60E08091BC0389DF61E08091BC035C
:100FA000B3DFC3E2D0E0CE010197F1F760E08091BA
:100FB000BB037CDF2197F1F7C0E0D0E010E093E2C3
:100FC000E92EF12C61E08091BB0370DF60E080913D
:100FD000BC039ADFC7010197F1F760E08091BB0382
:100FE00065DF8091BC0327DE892B09F021961F3035
:100FF00011F0CC0FDD1FC7010197F1F71F5F103112
:1010000009F783E391E00197F1F7CE01DF91CF91EA
:101010001F91FF90EF900895EF92FF921F93CF934F
:10102000DF93182F8091BC0306DE892B09F4D9D2F7
:1010300061E08091BB033ADF61E08091BC0336DF61
:1010400061E08091BC0360DFC3E2D0E0CE01019794
:10105000F1F760E08091BB0329DF2197F1F7D12FF1
:10106000C0E083E2E82EF12C61E08091BB031EDF3B
:10107000D7FF02C061E001C060E08091BC0316DFD1
:10108000C7010197F1F760E08091BB030FDFC73024
:1010900021F460E08091BC0337DFC7010197F1F7CD
:1010A000DD0FCF5FC83001F783E391E00197F1F7DF
:1010B000CAE08091BC03BFDD892B39F461DF815028
:1010C000C1E0811749F0C0E007C06EE170E080E048
:1010D00090E091D9C15069F78C2FDF91CF911F918A
:1010E000FF90EF9008951F93CF93DF93182FEB019C
:1010F00061E00ADF209711F460E004C0CF3FD10522
:1011000031F461E0812FDF91CF911F91CFCEE12F9C
:10111000F0E0EA5FFD4FE4918E2F90E0FC01319703
:10112000E231F10508F09DC08827EC57FF4F8F4F43
:101130000C94961284B5806884BDC7BD97C084B5F1
:10114000806284BDC8BD92C0809180008068809319
:101150008000D0938900C093880088C0809180006F
:10116000806280938000D0938B00C0938A007EC001
:1011700080918000886080938000D0938D00C09320
:101180008C0074C08091B00080688093B000C093E0
:10119000B3006CC08091B00080628093B000C093B7
:1011A000B40064C080919000806880939000D093D8
:1011B0009900C09398005AC08091900080628093FB
:1011C0009000D0939B00C0939A0050C080919000F3
:1011D000886080939000D0939D00C0939C0046C08F
:1011E0008091A00080688093A0008091A0008F7BF8
:1011F0008093A000D093A900C093A80037C080912D
:10120000A00080628093A000D093AB00C093AA009E
:101210002DC08091A00088608093A000D093AD0085
:10122000C093AC0023C0809120018068809320018E
:10123000D0932901C093280119C0809120018062B8
:1012400080932001D0932B01C0932A010FC080917D
:101250002001886080932001D0932D01C0932C0140
:1012600005C0C038D1050CF04CCF46CFDF91CF91EF
:101270001F9108951F920F920FB60F9211242F9372
:101280003F938F939F93AF93BF938091B7039091B8
:10129000B803A091B903B091BA033091540223E08E
:1012A000230F2D3720F40196A11DB11D05C026E89E
:1012B000230F0296A11DB11D209354028093B70302
:1012C0009093B803A093B903B093BA0380915502E9
:1012D00090915602A0915702B09158020196A11D1B
:1012E000B11D8093550290935602A0935702B0937C
:1012F0005802BF91AF919F918F913F912F910F9085
:101300000FBE0F901F9018951F920F920FB60F925D
:1013100011240BB60F922F933F934F935F936F93CC
:101320007F938F939F93AF93BF93EF93FF938DE73B
:1013300092E016D9FF91EF91BF91AF919F918F915C
:101340007F916F915F914F913F912F910F900BBEC5
:101350000F900FBE0F901F9018951F920F920FB60F
:101360000F9211240BB60F922F938F939F93EF93AD
:10137000FF93E0918D02F0918E028081E0919302C3
:10138000F091940282FD12C09081809196028F5F4D
:101390008F7320919702821751F0E0919602F0E04E
:1013A000E358FD4F958F8093960201C08081FF9195
:1013B000EF919F918F912F910F900BBE0F900FBEC9
:1013C0000F901F9018951F920F920FB60F92112435
:1013D0000BB60F922F933F934F935F936F937F932F
:1013E0008F939F93AF93BF93EF93FF938AE193E023
:1013F000B7D8FF91EF91BF91AF919F918F917F915E
:101400006F915F914F913F912F910F900BBE0F9075
:101410000FBE0F901F9018951F920F920FB60F924C
:1014200011240BB60F922F938F939F93EF93FF93FB
:10143000E0912A03F0912B038081E0913003F09139
:10144000310382FD12C09081809133038F5F8F73CF
:1014500020913403821751F0E0913303F0E0E65E0F
:10146000FC4F958F8093330301C08081FF91EF91F2
:101470009F918F912F910F900BBE0F900FBE0F90E9
:101480001F9018951F920F920FB60F9211240BB652
:101490000F922F933F934F935F936F937F938F930D
:1014A0009F93AF93BF93EF93FF9380912F029091FF
:1014B00030028093B2008091320290913302A09169
:1014C0003402B09135020196A11DB11D8093320204
:1014D00090933302A0933402B0933502809132028C
:1014E00090913302A0913402B091350240912B02C9
:1014F00050912C0260912D0270912E028417950755
:10150000A607B70710F18091310281111EC081E05A
:10151000809331028091320290913302A091340283
:10152000B0913502841B950BA60BB70B809332024A
:1015300090933302A0933402B0933502E0912902D4
:10154000F0912A02199510923102FF91EF91BF910B
:10155000AF919F918F917F916F915F914F913F914B
:101560002F910F900BBE0F900FBE0F901F901895EC
:101570001F93CF93DF93C9E5D2E01D861C869F871A
:101580008E87798B688B1B8A1A8A5D8B4C8B3F8B7D
:101590002E8B60E086E18ADC11E08A89612F681B6E
:1015A00087E184DC6C8988E181DC8C89612F681B90
:1015B00089E17CDC6E898AE179DC8E89612F681B88
:1015C0008BE174DC6C857D8585E08DDD6E857F85A6
:1015D00082E089DD6889798983E0DF91CF911F916D
:1015E00082CD0F931F93CF93DF931092CF0310926E
:1015F000D0031092D1031092D2031092D303109211
:10160000D4031092D5031092D60361E08091BB03FE
:101610004DDC60E08091BC0349DC61E08091BC035B
:1016200073DCC3E2D0E0CE010197F1F760E0809176
:10163000BB033CDC2197F1F7C0E003E210E061E07E
:101640008091BB0333DC60E08091BC035DDCC801AA
:101650000197F1F760E08091BB0328DC8091BC0327
:10166000EADA892B51F1C032A0F48091CF03909136
:10167000D003A091D103B091D2030196A11DB11D59
:101680008093CF039093D003A093D103B093D20360
:1016900014C08091D3039091D403A091D503B0914D
:1016A000D6030196A11DB11D8093D3039093D4035B
:1016B000A093D503B093D60316C0CF31A0F4809188
:1016C000CF039091D003A091D103B091D203880FA2
:1016D000991FAA1FBB1F8093CF039093D003A093A1
:1016E000D103B093D20380EE8C0F8F31A0F48091A0
:1016F000D3039091D403A091D503B091D603880F62
:10170000991FAA1FBB1F8093D3039093D403A09368
:10171000D503B093D603C8010197F1F7CF5FC0346A
:1017200009F08DCF83E391E00197F1F7DF91CF913D
:101730001F910F910895FC0164857585660F771FD1
:1017400082859385680F791F660F771F8085918545
:10175000680F791F660F771F86819781680F791F41
:10176000660F771F84819581680F791F660F771F39
:1017700082819381680F791F660F771F8081918125
:10178000680F791F072E000C880B990BB8D520E045
:1017900030E040E05CE367C6FC01828D938D880FEA
:1017A000991F208D318D820F931F880F991F2689D5
:1017B0003789820F931F880F991F24893589820FDB
:1017C000931F880F991F22893389820F931F880FD7
:1017D000991F20893189820F931F880F991F2685B1
:1017E0003785820F931F880F991F24853585820FB7
:1017F000931F880F991F22853385820F931F880FAF
:10180000991F20853185820F931F880F991F26818C
:101810003781820F931F880F991F24813581820F92
:10182000931F880F991F22813381820F931F880F86
:10183000991F20813181820F931F0895CF93DF93E9
:10184000CDB7DEB72B970FB6F894DEBF0FBECDBF76
:10185000789484B5826084BD84B5816084BD85B58B
:10186000826085BD85B5816085BD80916E00816097
:1018700080936E001092810080918100826080933D
:10188000810080918100816080938100809180003F
:101890008160809380008091B10084608093B1006A
:1018A0008091B00081608093B0008091910082604F
:1018B000809391008091910081608093910080914C
:1018C00090008160809390008091A100826080935D
:1018D000A1008091A10081608093A1008091A0006F
:1018E00081608093A000809121018260809321011A
:1018F000809121018160809321018091200181608C
:101900008093200180917A00846080937A00809196
:101910007A00826080937A0080917A00816080935F
:101920007A0080917A00806880937A001092C100DA
:101930008AE193E00E9459018DE792E00E945901EB
:1019400061E08091BB03E0DA60E08091BC03DCDA07
:1019500061E08091BB03D8DA61E08091BB03A6DA35
:101960006EE170E080E090E00E94FB0160ED77E0C6
:1019700080E090E00E94FB0160E08091BB0396DA7A
:101980000FEF1FE701501109B9F18091BC0353D942
:10199000892BC1F726DE8091D3039091D403A091C7
:1019A000D503B091D603883F9F4FA105B10521F51E
:1019B00061E070E080E090E00E94FB0183E78983B2
:1019C00085E08A838EE08B8385E18C831D821E8275
:1019D00088E28F838E010F5F1F4F7E0188E0E80E43
:1019E000F11CD8018D918D0117DBCADA0E151F0588
:1019F000C1F780E111DBC4DA42E3242E312C1092CE
:101A0000D8031092D7038091BC0315D9892B19F400
:101A1000E8DD0E947203C090BD03D090BE03E09049
:101A2000BF03F090C003C0923F04D0924004E09204
:101A30004104F09242044090C1035090C203609070
:101A4000C3037090C4034092A1045092A204609218
:101A5000A3047092A40480910B0490910C0401964D
:101A600090930C0480930B048091070490910804D8
:101A7000A0910904B0910A0488879987AA87BB8737
:101A80000091010410910204F801EE0FFF1FEE0F08
:101A9000FF1FE35FFB4FC082D182E282F3823DE011
:101AA000E32E34E0F32E812C912C5401C12CD12C47
:101AB000C016D106B4F49FEFC91AD90AD7011496FB
:101AC0002D913D914D915C911797F70121933193A1
:101AD000419351937F01C501B4013FD34B015C0198
:101AE000E7CFB801110F880B990B09D49B01AC010A
:101AF000C501B4019AD360933F047093400480936E
:101B00004104909342046093BD037093BE0380939D
:101B1000BF039093C00380916D0490916E04019671
:101B200090936E0480936D0400916304109164049B
:101B3000F801EE0FFF1FEE0FFF1FE159FB4F408230
:101B40005182628273829FE6E92E94E0F92E812C05
:101B5000912C5401C12CD12CC016D106B4F4FFEF46
:101B6000CF1ADF0AD70114962D913D914D915C91CA
:101B70001797F70121933193419351937F01C50149
:101B8000B401EBD24B015C01E7CFB801110F880B18
:101B9000990BB5D39B01AC01C501B40146D3609349
:101BA000A1047093A2048093A3049093A40460936F
:101BB000C1037093C2038093C3039093C403F1E005
:101BC0002F1A310809F01BCF80E090E8AEE9B3E4AA
:101BD0008093D9039093DA03A093DB03B093DC03E3
:101BE00061E082E291D989E190E0A0E0B0E08093E9
:101BF0002B0290932C02A0932D02B0932E0283E42B
:101C000096E090932A0280932902809170008E7F43
:101C1000809370008091B0008C7F8093B0008091A1
:101C2000B100877F8093B1008091B6008F7D809353
:101C3000B600809170008D7F809370008091B1001C
:101C400084608093B1008091B1008C7F8093B1005B
:101C500086E090E09093300280932F02109232023F
:101C60001092330210923402109235021092310217
:101C700080912F02909130028093B2008091700089
:101C8000816080937000109245021092440280900F
:101C90004A0290904B02A0904C02B0904D0220E07E
:101CA00030E040EA50E4C501B401D9D318160CF075
:101CB00057C0C0904E02D0904F02E0905002F0907A
:101CC000510220E030E040EA50E4C701B601C7D33A
:101CD00018160CF045C020E030E842EA54E4C50193
:101CE000B4019FD287FF3CC020E030E046E154E4DD
:101CF000C701B60196D287FF33C020E030E040EF45
:101D000051E4C501B4018DD287FD1BC020E030E055
:101D10004AE754E4C501B401A2D3181694F020E0B8
:101D200030E040EA51E4C701B6017BD287FD09C02B
:101D300020E030E84EE054E4C701B60190D3181615
:101D40005CF4809144029091450201969093450283
:101D500080934402459724F0109245021092440269
:101D6000C0903A02D0903B02E0903C02F0903D02DD
:101D700020E030E84EE054E4C701B60170D31816F5
:101D800094F520E030E848E154E4C701B60149D2B7
:101D900087FF29C0C0903E02D0903F02E0904002F1
:101DA000F090410220E030E04DE453E4C701B60179
:101DB00056D31816C4F420E030E045E753E4C701D9
:101DC000B6012FD287FF0FC020E030E040E050E0A6
:101DD00060E070E080E090E0CBDB60E177E280E003
:101DE00090E00E94FB0121E030E041E050E060EA39
:101DF00070E084E690E0BCDB8DE792E00E941E0379
:101E00000E943F0344CF4F925F926F927F928F92D6
:101E10009F92AF92BF92CF92DF92EF92FF920F9379
:101E20001F93CF93DF93EDE7F2E01382128248EE27
:101E300053E060E070E0448355836683778384E0F9
:101E400092E09183808325E331E03587248724E382
:101E500031E03787268720E331E0318B208B21E387
:101E600031E0338B228B22E331E0358B248B26E368
:101E700031E0378B268B118E128E138E148EEAE191
:101E8000F3E01382128244835583668377839183C0
:101E9000808385EC90E09587848784EC90E0978739
:101EA000868780EC90E0918B808B81EC90E0938B27
:101EB000828B82EC90E0958B848B86EC90E0978B04
:101EC000868B118E128E138E148EE9EAF4E085EA69
:101ED00094E0978F868F8DED93E0958F848F89EDB9
:101EE00093E091A380A312AE12AA13AA14AA15AA72
:101EF00080E090E0AFE7B3E486AB97ABA0AFB1AFC3
:101F000084E690E0A0E0B0E086A797A7A0ABB1ABD5
:101F100081E090E0918F808F938F828F83AF80E0FC
:101F200090E0A0E2B0E480839183A283B38380E059
:101F300090E0A0EAB1E484839583A683B78340E070
:101F400050E060E87FE3408751876287738780E0D5
:101F500090E0A0E2B0EC84879587A687B78780E001
:101F600090E0A0E0B0EC808B918BA28BB38B80E0F3
:101F700090E0A0E2B1EC848B958BA68BB78B2FB74A
:101F8000F8948091B7039091B803A091B903B091F0
:101F9000BA032FBF06A517A520A931A9801B910B55
:101FA000A20BB30B82A393A3A4A3B5A3CBEBD3E063
:101FB00085E1888384E189831E821F8218861986C1
:101FC0001A821B821C821D821E861F86188A198A0D
:101FD0001A861B861C861D86A3E4B4E018964D93D2
:101FE0005D936D937C931B971C964D935D936D93BE
:101FF0007C931F97812C912C80E4A82EBA2C5896A4
:102000008D929D92AD92BC925B979AE9C92E99E907
:10201000D92EED2C9EE3F92E5096CD92DD92ED92C5
:10202000FC92539700E010E020E231E454960D93C7
:102030001D932D933C9357971D921D921D921C92B8
:1020400013971092A1041092A2041092A30410926C
:10205000A40400E010E028E432E496960D931D936A
:102060002D933C939997412C512CE6E96E2EE2E496
:102070007E2E92964D925D926D927C9295979B9654
:102080001C921E929A97E1EEF3E040875187628797
:1020900073874487558766877787808E918EA28E57
:1020A000B38EC08AD18AE28AF38A4AE959E96DE19E
:1020B00071E4448B558B668B778B10821182128270
:1020C000138210923F041092400410924104109227
:1020D000420406A317A320A731A740E050E068EC14
:1020E00072E442A353A364A375A313A612A61B8A8A
:1020F0001A8A1D8E1C8E46E050E091965C934E939A
:1021000090972CE1AFE6B4E0ED01822F19928A9509
:10211000E9F784E090E090938C0480938B0451A3C2
:1021200040A3EDE0F4E0DF011D922A95E9F79093DA
:102130002A0480932904DF91CF911F910F91FF9082
:10214000EF90DF90CF90BF90AF909F908F907F9057
:102150006F905F904F9008955058BB27AA270ED0DC
:1021600044C135D130F03AD120F031F49F3F11F421
:102170001EF42AC10EF4E095E7FB20C1E92F46D1F9
:1021800080F3BA17620773078407950718F071F494
:102190009EF55EC10EF4E0950B2EBA2FA02D0B011B
:1021A000B90190010C01CA01A0011124FF27591B9C
:1021B00099F0593F50F4503E68F11A16F040A22FA2
:1021C000232F342F4427585FF3CF46953795279513
:1021D000A795F0405395C9F77EF41F16BA0B620B12
:1021E000730B840BBAF09150A1F0FF0FBB1F661F59
:1021F000771F881FC2F70EC0BA0F621F731F841F9C
:1022000048F4879577956795B795F7959E3F08F0C1
:10221000B3CF9395880F08F09927EE0F9795879580
:102220000895A8D008F481E008950CD0DEC0D6D07F
:1022300040F0CDD030F021F45F3F19F0BFC0511114
:1022400008C1C2C0E3D098F39923C9F35523B1F371
:10225000951B550BBB27AA2762177307840738F015
:102260009F5F5F4F220F331F441FAA1FA9F333D074
:102270000E2E3AF0E0E830D091505040E695001C28
:10228000CAF729D0FE2F27D0660F771F881FBB1FE4
:10229000261737074807AB07B0E809F0BB0B802DBE
:1022A000BF01FF2793585F4F2AF09E3F510568F00A
:1022B00085C0CFC05F3FECF3983EDCF38695779501
:1022C0006795B795F7959F5FC9F7880F911D96950C
:1022D000879597F90895E1E0660F771F881FBB1F68
:1022E000621773078407BA0720F0621B730B840B15
:1022F000BA0BEE1F88F7E0950895E89409C097FBA4
:102300003EF490958095709561957F4F8F4F9F4FCC
:102310009923A9F0F92F96E9BB279395F695879510
:1023200077956795B795F111F8CFFAF4BB0F11F4D3
:1023300060FF1BC06F5F7F4F8F4F9F4F16C088237A
:1023400011F096E911C0772321F09EE8872F762FB0
:1023500005C0662371F096E8862F70E060E02AF0F1
:102360009A95660F771F881FDAF7880F96958795DD
:1023700097F90895990F0008550FAA0BE0E8FEEFB2
:1023800016161706E807F907C0F012161306E40739
:10239000F50798F0621B730B840B950B39F40A2632
:1023A00061F0232B242B252B21F408950A2609F410
:1023B000A140A6958FEF811D811D089597F99F6714
:1023C00080E870E060E008959FEF80EC08950024BD
:1023D0000A941616170618060906089500240A948A
:1023E00012161306140605060895092E0394000C10
:1023F00011F4882352F0BB0F40F4BF2B11F460FF9F
:1024000004C06F5F7F4F8F4F9F4F089557FD9058C7
:10241000440F551F59F05F3F71F04795880F97FBA8
:10242000991F61F09F3F79F0879508951216130662
:102430001406551FF2CF4695F1DF08C01616170691
:102440001806991FF1CF86957105610508940895C6
:10245000E894BB2766277727CB0197F908958ADF91
:1024600008F48FEF08950BD0C0CFB1DF28F0B6DFAE
:1024700018F0952309F0A2CFA7CF1124EACFC6DF29
:10248000A0F3959FD1F3950F50E0551F629FF00187
:10249000729FBB27F00DB11D639FAA27F00DB11DE0
:1024A000AA1F649F6627B00DA11D661F829F222769
:1024B000B00DA11D621F739FB00DA11D621F839FF0
:1024C000A00D611D221F749F3327A00D611D231FC6
:1024D000849F600D211D822F762F6A2F11249F5714
:1024E00050408AF0E1F088234AF0EE0FFF1FBB1F37
:1024F000661F771F881F91505040A9F79E3F5105D6
:1025000070F05CCFA6CF5F3FECF3983EDCF386958E
:1025100077956795B795F795E7959F5FC1F7FE2B80
:10252000880F911D9695879597F90895EE0FFF1FD7
:10253000881F8BBF0790F691E02D199481E090E001
:08254000F89400C0F894FFCFED
:1025480000000000D202330261021E0392027002F0
:022558008402FB
:00000001FF
